{
  "_format": "hh-sol-artifact-1",
  "contractName": "FortuneNXTDiamond",
  "sourceName": "contracts/FortuneNXTDiamond.sol",
  "abi": [
    {
      "inputs": [
        {
          "components": [
            {
              "internalType": "address",
              "name": "facetAddress",
              "type": "address"
            },
            {
              "internalType": "bytes4[]",
              "name": "functionSelectors",
              "type": "bytes4[]"
            },
            {
              "internalType": "uint8",
              "name": "action",
              "type": "uint8"
            }
          ],
          "internalType": "struct FortuneNXTDiamond.FacetCut[]",
          "name": "_newDiamondCut",
          "type": "tuple[]"
        }
      ],
      "stateMutability": "nonpayable",
      "type": "constructor"
    },
    {
      "inputs": [
        {
          "internalType": "address",
          "name": "target",
          "type": "address"
        }
      ],
      "name": "AddressEmptyCode",
      "type": "error"
    },
    {
      "inputs": [],
      "name": "FailedCall",
      "type": "error"
    },
    {
      "anonymous": false,
      "inputs": [
        {
          "components": [
            {
              "internalType": "address",
              "name": "facetAddress",
              "type": "address"
            },
            {
              "internalType": "bytes4[]",
              "name": "functionSelectors",
              "type": "bytes4[]"
            },
            {
              "internalType": "uint8",
              "name": "action",
              "type": "uint8"
            }
          ],
          "indexed": false,
          "internalType": "struct FortuneNXTDiamond.FacetCut[]",
          "name": "_diamondCut",
          "type": "tuple[]"
        },
        {
          "indexed": false,
          "internalType": "address",
          "name": "_init",
          "type": "address"
        },
        {
          "indexed": false,
          "internalType": "bytes",
          "name": "_calldata",
          "type": "bytes"
        }
      ],
      "name": "DiamondCut",
      "type": "event"
    },
    {
      "anonymous": false,
      "inputs": [
        {
          "indexed": true,
          "internalType": "address",
          "name": "previousOwner",
          "type": "address"
        },
        {
          "indexed": true,
          "internalType": "address",
          "name": "newOwner",
          "type": "address"
        }
      ],
      "name": "OwnershipTransferred",
      "type": "event"
    },
    {
      "stateMutability": "payable",
      "type": "fallback"
    },
    {
      "inputs": [],
      "name": "ADMIN_FEE_PERCENT",
      "outputs": [
        {
          "internalType": "uint256",
          "name": "",
          "type": "uint256"
        }
      ],
      "stateMutability": "view",
      "type": "function"
    },
    {
      "inputs": [],
      "name": "LEVEL_INCOME_PERCENT",
      "outputs": [
        {
          "internalType": "uint256",
          "name": "",
          "type": "uint256"
        }
      ],
      "stateMutability": "view",
      "type": "function"
    },
    {
      "inputs": [],
      "name": "MATRIX_INCOME_PERCENT",
      "outputs": [
        {
          "internalType": "uint256",
          "name": "",
          "type": "uint256"
        }
      ],
      "stateMutability": "view",
      "type": "function"
    },
    {
      "inputs": [],
      "name": "MAX_PAYOUT_PERCENT",
      "outputs": [
        {
          "internalType": "uint256",
          "name": "",
          "type": "uint256"
        }
      ],
      "stateMutability": "view",
      "type": "function"
    },
    {
      "inputs": [],
      "name": "MAX_PAYOUT_TIME",
      "outputs": [
        {
          "internalType": "uint256",
          "name": "",
          "type": "uint256"
        }
      ],
      "stateMutability": "view",
      "type": "function"
    },
    {
      "inputs": [],
      "name": "POOL_EXTRA_PERCENT",
      "outputs": [
        {
          "internalType": "uint256",
          "name": "",
          "type": "uint256"
        }
      ],
      "stateMutability": "view",
      "type": "function"
    },
    {
      "inputs": [
        {
          "components": [
            {
              "internalType": "address",
              "name": "facetAddress",
              "type": "address"
            },
            {
              "internalType": "bytes4[]",
              "name": "functionSelectors",
              "type": "bytes4[]"
            },
            {
              "internalType": "uint8",
              "name": "action",
              "type": "uint8"
            }
          ],
          "internalType": "struct FortuneNXTDiamond.FacetCut[]",
          "name": "diamondCutParam",
          "type": "tuple[]"
        },
        {
          "internalType": "address",
          "name": "_init",
          "type": "address"
        },
        {
          "internalType": "bytes",
          "name": "_calldata",
          "type": "bytes"
        }
      ],
      "name": "diamondCut",
      "outputs": [],
      "stateMutability": "nonpayable",
      "type": "function"
    },
    {
      "inputs": [
        {
          "internalType": "bytes4",
          "name": "_functionSelector",
          "type": "bytes4"
        }
      ],
      "name": "facetAddress",
      "outputs": [
        {
          "internalType": "address",
          "name": "facetAddress_",
          "type": "address"
        }
      ],
      "stateMutability": "view",
      "type": "function"
    },
    {
      "inputs": [],
      "name": "facetAddresses",
      "outputs": [
        {
          "internalType": "address[]",
          "name": "facetAddresses_",
          "type": "address[]"
        }
      ],
      "stateMutability": "view",
      "type": "function"
    },
    {
      "inputs": [
        {
          "internalType": "address",
          "name": "_facet",
          "type": "address"
        }
      ],
      "name": "facetFunctionSelectors",
      "outputs": [
        {
          "internalType": "bytes4[]",
          "name": "",
          "type": "bytes4[]"
        }
      ],
      "stateMutability": "view",
      "type": "function"
    },
    {
      "inputs": [],
      "name": "facets",
      "outputs": [
        {
          "components": [
            {
              "internalType": "address",
              "name": "facetAddress",
              "type": "address"
            },
            {
              "internalType": "bytes4[]",
              "name": "functionSelectors",
              "type": "bytes4[]"
            }
          ],
          "internalType": "struct FortuneNXTDiamond.FacetInfo[]",
          "name": "facets_",
          "type": "tuple[]"
        }
      ],
      "stateMutability": "view",
      "type": "function"
    },
    {
      "inputs": [
        {
          "internalType": "bytes4",
          "name": "_functionSelector",
          "type": "bytes4"
        }
      ],
      "name": "functionExists",
      "outputs": [
        {
          "internalType": "bool",
          "name": "exists",
          "type": "bool"
        }
      ],
      "stateMutability": "view",
      "type": "function"
    },
    {
      "inputs": [],
      "name": "getOwner",
      "outputs": [
        {
          "internalType": "address",
          "name": "owner_",
          "type": "address"
        }
      ],
      "stateMutability": "view",
      "type": "function"
    },
    {
      "inputs": [],
      "name": "lastPoolDistributionTime",
      "outputs": [
        {
          "internalType": "uint256",
          "name": "",
          "type": "uint256"
        }
      ],
      "stateMutability": "view",
      "type": "function"
    },
    {
      "inputs": [],
      "name": "owner",
      "outputs": [
        {
          "internalType": "address",
          "name": "",
          "type": "address"
        }
      ],
      "stateMutability": "view",
      "type": "function"
    },
    {
      "inputs": [
        {
          "internalType": "uint256",
          "name": "",
          "type": "uint256"
        }
      ],
      "name": "poolDistributionDays",
      "outputs": [
        {
          "internalType": "uint8",
          "name": "",
          "type": "uint8"
        }
      ],
      "stateMutability": "view",
      "type": "function"
    },
    {
      "inputs": [],
      "name": "priceFeed",
      "outputs": [
        {
          "internalType": "contract IPriceFeed",
          "name": "",
          "type": "address"
        }
      ],
      "stateMutability": "view",
      "type": "function"
    },
    {
      "inputs": [],
      "name": "totalPoolBalance",
      "outputs": [
        {
          "internalType": "uint256",
          "name": "",
          "type": "uint256"
        }
      ],
      "stateMutability": "view",
      "type": "function"
    },
    {
      "inputs": [],
      "name": "totalUsers",
      "outputs": [
        {
          "internalType": "uint256",
          "name": "",
          "type": "uint256"
        }
      ],
      "stateMutability": "view",
      "type": "function"
    },
    {
      "inputs": [],
      "name": "totalVolume",
      "outputs": [
        {
          "internalType": "uint256",
          "name": "",
          "type": "uint256"
        }
      ],
      "stateMutability": "view",
      "type": "function"
    },
    {
      "inputs": [
        {
          "internalType": "address",
          "name": "_newOwner",
          "type": "address"
        }
      ],
      "name": "transferOwnership",
      "outputs": [],
      "stateMutability": "nonpayable",
      "type": "function"
    },
    {
      "inputs": [],
      "name": "treasury",
      "outputs": [
        {
          "internalType": "address",
          "name": "",
          "type": "address"
        }
      ],
      "stateMutability": "view",
      "type": "function"
    },
    {
      "inputs": [],
      "name": "version",
      "outputs": [
        {
          "internalType": "uint256",
          "name": "",
          "type": "uint256"
        }
      ],
      "stateMutability": "view",
      "type": "function"
    },
    {
      "stateMutability": "payable",
      "type": "receive"
    }
  ],
  "bytecode": "0x60806040526040518060600160405280600560ff168152602001600f60ff168152602001601960ff16815250600090600361003b92919061143c565b5034801561004857600080fd5b506040516153bc3803806153bc833981810160405281019061006a91906118f8565b33600660006101000a81548173ffffffffffffffffffffffffffffffffffffffff021916908373ffffffffffffffffffffffffffffffffffffffff1602179055503373ffffffffffffffffffffffffffffffffffffffff16600073ffffffffffffffffffffffffffffffffffffffff167f8be0079c531659141344cd1fd0a4f28419497f9722a3daafe3b4186f6b6457e060405160405180910390a36101278160006040518060200160405280600081525061012d60201b60201c565b50611ffa565b60005b835181101561023057600084828151811061014e5761014d611941565b5b60200260200101519050600060ff16816040015160ff1603610187576101828160000151826020015161037360201b60201c565b610222565b600160ff16816040015160ff16036101b6576101b18160000151826020015161074d60201b60201c565b610221565b600260ff16816040015160ff16036101e5576101e081600001518260200151610c0f60201b60201c565b610220565b6040517f08c379a0000000000000000000000000000000000000000000000000000000008152600401610217906119cd565b60405180910390fd5b5b5b508080600101915050610130565b507f66966c8a5eed8586a000df89fdb2a0609ed789cce7d1639a5f3b5483d802e0ad83838360405161026493929190611c69565b60405180910390a1600073ffffffffffffffffffffffffffffffffffffffff168273ffffffffffffffffffffffffffffffffffffffff161461036e576000815111156102c0576102ba82826110c560201b60201c565b5061036d565b61036b6040516024016040516020818303038152906040527fe1c7392a000000000000000000000000000000000000000000000000000000007bffffffffffffffffffffffffffffffffffffffffffffffffffffffff19166020820180517bffffffffffffffffffffffffffffffffffffffffffffffffffffffff83818316178352505050508373ffffffffffffffffffffffffffffffffffffffff166110c560201b90919060201c565b505b5b505050565b600073ffffffffffffffffffffffffffffffffffffffff168273ffffffffffffffffffffffffffffffffffffffff16036103e2576040517f08c379a00000000000000000000000000000000000000000000000000000000081526004016103d990611cfa565b60405180910390fd5b6000815111610426576040517f08c379a000000000000000000000000000000000000000000000000000000000815260040161041d90611d66565b60405180910390fd5b6000604060008473ffffffffffffffffffffffffffffffffffffffff1673ffffffffffffffffffffffffffffffffffffffff1681526020019081526020016000209050600073ffffffffffffffffffffffffffffffffffffffff168160000160009054906101000a900473ffffffffffffffffffffffffffffffffffffffff1673ffffffffffffffffffffffffffffffffffffffff1603610568576041839080600181540180825580915050600190039060005260206000200160009091909190916101000a81548173ffffffffffffffffffffffffffffffffffffffff021916908373ffffffffffffffffffffffffffffffffffffffff160217905550828160000160006101000a81548173ffffffffffffffffffffffffffffffffffffffff021916908373ffffffffffffffffffffffffffffffffffffffff1602179055505b60005b825181101561074757600083828151811061058957610588611941565b5b60200260200101519050600073ffffffffffffffffffffffffffffffffffffffff16603f6000837bffffffffffffffffffffffffffffffffffffffffffffffffffffffff19167bffffffffffffffffffffffffffffffffffffffffffffffffffffffff1916815260200190815260200160002060009054906101000a900473ffffffffffffffffffffffffffffffffffffffff1673ffffffffffffffffffffffffffffffffffffffff1614610673576040517f08c379a000000000000000000000000000000000000000000000000000000000815260040161066a90611dd2565b60405180910390fd5b6106a8817bffffffffffffffffffffffffffffffffffffffffffffffffffffffff19168460010161114f60201b90919060201c565b5084603f6000837bffffffffffffffffffffffffffffffffffffffffffffffffffffffff19167bffffffffffffffffffffffffffffffffffffffffffffffffffffffff1916815260200190815260200160002060006101000a81548173ffffffffffffffffffffffffffffffffffffffff021916908373ffffffffffffffffffffffffffffffffffffffff16021790555050808060010191505061056b565b50505050565b600073ffffffffffffffffffffffffffffffffffffffff168273ffffffffffffffffffffffffffffffffffffffff16036107bc576040517f08c379a00000000000000000000000000000000000000000000000000000000081526004016107b390611cfa565b60405180910390fd5b6000815111610800576040517f08c379a00000000000000000000000000000000000000000000000000000000081526004016107f790611d66565b60405180910390fd5b60005b8151811015610c0a57600082828151811061082157610820611941565b5b602002602001015190506000603f6000837bffffffffffffffffffffffffffffffffffffffffffffffffffffffff19167bffffffffffffffffffffffffffffffffffffffffffffffffffffffff1916815260200190815260200160002060009054906101000a900473ffffffffffffffffffffffffffffffffffffffff169050600073ffffffffffffffffffffffffffffffffffffffff168173ffffffffffffffffffffffffffffffffffffffff1603610910576040517f08c379a000000000000000000000000000000000000000000000000000000000815260040161090790611e3e565b60405180910390fd5b8473ffffffffffffffffffffffffffffffffffffffff168173ffffffffffffffffffffffffffffffffffffffff160361097e576040517f08c379a000000000000000000000000000000000000000000000000000000000815260040161097590611ed0565b60405180910390fd5b6109f1827bffffffffffffffffffffffffffffffffffffffffffffffffffffffff1916604060008473ffffffffffffffffffffffffffffffffffffffff1673ffffffffffffffffffffffffffffffffffffffff16815260200190815260200160002060010161116c60201b90919060201c565b506000604060008773ffffffffffffffffffffffffffffffffffffffff1673ffffffffffffffffffffffffffffffffffffffff1681526020019081526020016000209050600073ffffffffffffffffffffffffffffffffffffffff168160000160009054906101000a900473ffffffffffffffffffffffffffffffffffffffff1673ffffffffffffffffffffffffffffffffffffffff1603610b34576041869080600181540180825580915050600190039060005260206000200160009091909190916101000a81548173ffffffffffffffffffffffffffffffffffffffff021916908373ffffffffffffffffffffffffffffffffffffffff160217905550858160000160006101000a81548173ffffffffffffffffffffffffffffffffffffffff021916908373ffffffffffffffffffffffffffffffffffffffff1602179055505b610b69837bffffffffffffffffffffffffffffffffffffffffffffffffffffffff19168260010161114f60201b90919060201c565b5085603f6000857bffffffffffffffffffffffffffffffffffffffffffffffffffffffff19167bffffffffffffffffffffffffffffffffffffffffffffffffffffffff1916815260200190815260200160002060006101000a81548173ffffffffffffffffffffffffffffffffffffffff021916908373ffffffffffffffffffffffffffffffffffffffff1602179055505050508080600101915050610803565b505050565b6000815111610c53576040517f08c379a0000000000000000000000000000000000000000000000000000000008152600401610c4a90611d66565b60405180910390fd5b60005b81518110156110c0576000828281518110610c7457610c73611941565b5b602002602001015190506000603f6000837bffffffffffffffffffffffffffffffffffffffffffffffffffffffff19167bffffffffffffffffffffffffffffffffffffffffffffffffffffffff1916815260200190815260200160002060009054906101000a900473ffffffffffffffffffffffffffffffffffffffff169050600073ffffffffffffffffffffffffffffffffffffffff168173ffffffffffffffffffffffffffffffffffffffff1603610d63576040517f08c379a0000000000000000000000000000000000000000000000000000000008152600401610d5a90611e3e565b60405180910390fd5b610dd6827bffffffffffffffffffffffffffffffffffffffffffffffffffffffff1916604060008473ffffffffffffffffffffffffffffffffffffffff1673ffffffffffffffffffffffffffffffffffffffff16815260200190815260200160002060010161116c60201b90919060201c565b50603f6000837bffffffffffffffffffffffffffffffffffffffffffffffffffffffff19167bffffffffffffffffffffffffffffffffffffffffffffffffffffffff1916815260200190815260200160002060006101000a81549073ffffffffffffffffffffffffffffffffffffffff02191690556000610e9d604060008473ffffffffffffffffffffffffffffffffffffffff1673ffffffffffffffffffffffffffffffffffffffff16815260200190815260200160002060010161118960201b60201c565b036110b15760005b604180549050811015611028578173ffffffffffffffffffffffffffffffffffffffff1660418281548110610edd57610edc611941565b5b9060005260206000200160009054906101000a900473ffffffffffffffffffffffffffffffffffffffff1673ffffffffffffffffffffffffffffffffffffffff160361101b5760416001604180549050610f379190611f29565b81548110610f4857610f47611941565b5b9060005260206000200160009054906101000a900473ffffffffffffffffffffffffffffffffffffffff1660418281548110610f8757610f86611941565b5b9060005260206000200160006101000a81548173ffffffffffffffffffffffffffffffffffffffff021916908373ffffffffffffffffffffffffffffffffffffffff1602179055506041805480610fe157610fe0611f5d565b5b6001900381819060005260206000200160006101000a81549073ffffffffffffffffffffffffffffffffffffffff02191690559055611028565b8080600101915050610ea5565b50604060008273ffffffffffffffffffffffffffffffffffffffff1673ffffffffffffffffffffffffffffffffffffffff168152602001908152602001600020600080820160006101000a81549073ffffffffffffffffffffffffffffffffffffffff0219169055600182016000808201600080820160006110aa91906114d6565b5050505050505b50508080600101915050610c56565b505050565b60606000808473ffffffffffffffffffffffffffffffffffffffff16846040516110ef9190611fc8565b600060405180830381855af49150503d806000811461112a576040519150601f19603f3d011682016040523d82523d6000602084013e61112f565b606091505b50915091506111458583836111a460201b60201c565b9250505092915050565b6000611164836000018361123960201b60201c565b905092915050565b600061118183600001836112af60201b60201c565b905092915050565b600061119d826000016113c360201b60201c565b9050919050565b6060826111bf576111ba826113d460201b60201c565b611231565b600082511480156111e7575060008473ffffffffffffffffffffffffffffffffffffffff163b145b1561122957836040517f9996b3150000000000000000000000000000000000000000000000000000000081526004016112209190611fdf565b60405180910390fd5b819050611232565b5b9392505050565b600061124b838361141960201b60201c565b6112a45782600001829080600181540180825580915050600190039060005260206000200160009091909190915055826000018054905083600101600084815260200190815260200160002081905550600190506112a9565b600090505b92915050565b600080836001016000848152602001908152602001600020549050600081146113b75760006001826112e19190611f29565b90506000600186600001805490506112f99190611f29565b905080821461136857600086600001828154811061131a57611319611941565b5b906000526020600020015490508087600001848154811061133e5761133d611941565b5b90600052602060002001819055508387600101600083815260200190815260200160002081905550505b8560000180548061137c5761137b611f5d565b5b6001900381819060005260206000200160009055905585600101600086815260200190815260200160002060009055600193505050506113bd565b60009150505b92915050565b600081600001805490509050919050565b6000815111156113e75780518082602001fd5b6040517fd6bda27500000000000000000000000000000000000000000000000000000000815260040160405180910390fd5b600080836001016000848152602001908152602001600020541415905092915050565b826003601f016020900481019282156114c55791602002820160005b8382111561149657835183826101000a81548160ff021916908360ff1602179055509260200192600101602081600001049283019260010302611458565b80156114c35782816101000a81549060ff0219169055600101602081600001049283019260010302611496565b505b5090506114d291906114f7565b5090565b50805460008255906000526020600020908101906114f49190611514565b50565b5b808211156115105760008160009055506001016114f8565b5090565b5b8082111561152d576000816000905550600101611515565b5090565b6000604051905090565b600080fd5b600080fd5b600080fd5b6000601f19601f8301169050919050565b7f4e487b7100000000000000000000000000000000000000000000000000000000600052604160045260246000fd5b6115938261154a565b810181811067ffffffffffffffff821117156115b2576115b161155b565b5b80604052505050565b60006115c5611531565b90506115d1828261158a565b919050565b600067ffffffffffffffff8211156115f1576115f061155b565b5b602082029050602081019050919050565b600080fd5b600080fd5b600080fd5b600073ffffffffffffffffffffffffffffffffffffffff82169050919050565b600061163c82611611565b9050919050565b61164c81611631565b811461165757600080fd5b50565b60008151905061166981611643565b92915050565b600067ffffffffffffffff82111561168a5761168961155b565b5b602082029050602081019050919050565b60007fffffffff0000000000000000000000000000000000000000000000000000000082169050919050565b6116d08161169b565b81146116db57600080fd5b50565b6000815190506116ed816116c7565b92915050565b60006117066117018461166f565b6115bb565b9050808382526020820190506020840283018581111561172957611728611602565b5b835b81811015611752578061173e88826116de565b84526020840193505060208101905061172b565b5050509392505050565b600082601f83011261177157611770611545565b5b81516117818482602086016116f3565b91505092915050565b600060ff82169050919050565b6117a08161178a565b81146117ab57600080fd5b50565b6000815190506117bd81611797565b92915050565b6000606082840312156117d9576117d8611607565b5b6117e360606115bb565b905060006117f38482850161165a565b600083015250602082015167ffffffffffffffff8111156118175761181661160c565b5b6118238482850161175c565b6020830152506040611837848285016117ae565b60408301525092915050565b6000611856611851846115d6565b6115bb565b9050808382526020820190506020840283018581111561187957611878611602565b5b835b818110156118c057805167ffffffffffffffff81111561189e5761189d611545565b5b8086016118ab89826117c3565b8552602085019450505060208101905061187b565b5050509392505050565b600082601f8301126118df576118de611545565b5b81516118ef848260208601611843565b91505092915050565b60006020828403121561190e5761190d61153b565b5b600082015167ffffffffffffffff81111561192c5761192b611540565b5b611938848285016118ca565b91505092915050565b7f4e487b7100000000000000000000000000000000000000000000000000000000600052603260045260246000fd5b600082825260208201905092915050565b7f4469616d6f6e643a20496e76616c696420616374696f6e000000000000000000600082015250565b60006119b7601783611970565b91506119c282611981565b602082019050919050565b600060208201905081810360008301526119e6816119aa565b9050919050565b600081519050919050565b600082825260208201905092915050565b6000819050602082019050919050565b611a2281611631565b82525050565b600081519050919050565b600082825260208201905092915050565b6000819050602082019050919050565b611a5d8161169b565b82525050565b6000611a6f8383611a54565b60208301905092915050565b6000602082019050919050565b6000611a9382611a28565b611a9d8185611a33565b9350611aa883611a44565b8060005b83811015611ad9578151611ac08882611a63565b9750611acb83611a7b565b925050600181019050611aac565b5085935050505092915050565b611aef8161178a565b82525050565b6000606083016000830151611b0d6000860182611a19565b5060208301518482036020860152611b258282611a88565b9150506040830151611b3a6040860182611ae6565b508091505092915050565b6000611b518383611af5565b905092915050565b6000602082019050919050565b6000611b71826119ed565b611b7b81856119f8565b935083602082028501611b8d85611a09565b8060005b85811015611bc95784840389528151611baa8582611b45565b9450611bb583611b59565b925060208a01995050600181019050611b91565b50829750879550505050505092915050565b611be481611631565b82525050565b600081519050919050565b600082825260208201905092915050565b60005b83811015611c24578082015181840152602081019050611c09565b60008484015250505050565b6000611c3b82611bea565b611c458185611bf5565b9350611c55818560208601611c06565b611c5e8161154a565b840191505092915050565b60006060820190508181036000830152611c838186611b66565b9050611c926020830185611bdb565b8181036040830152611ca48184611c30565b9050949350505050565b7f4469616d6f6e643a20496e76616c696420666163657420616464726573730000600082015250565b6000611ce4601e83611970565b9150611cef82611cae565b602082019050919050565b60006020820190508181036000830152611d1381611cd7565b9050919050565b7f4469616d6f6e643a204e6f2073656c6563746f72732070726f76696465640000600082015250565b6000611d50601e83611970565b9150611d5b82611d1a565b602082019050919050565b60006020820190508181036000830152611d7f81611d43565b9050919050565b7f4469616d6f6e643a2046756e6374696f6e20616c726561647920657869737473600082015250565b6000611dbc602083611970565b9150611dc782611d86565b602082019050919050565b60006020820190508181036000830152611deb81611daf565b9050919050565b7f4469616d6f6e643a2046756e6374696f6e20646f6573206e6f74206578697374600082015250565b6000611e28602083611970565b9150611e3382611df2565b602082019050919050565b60006020820190508181036000830152611e5781611e1b565b9050919050565b7f4469616d6f6e643a2043616e6e6f74207265706c61636520776974682073616d60008201527f6520666163657400000000000000000000000000000000000000000000000000602082015250565b6000611eba602783611970565b9150611ec582611e5e565b604082019050919050565b60006020820190508181036000830152611ee981611ead565b9050919050565b6000819050919050565b7f4e487b7100000000000000000000000000000000000000000000000000000000600052601160045260246000fd5b6000611f3482611ef0565b9150611f3f83611ef0565b9250828203905081811115611f5757611f56611efa565b5b92915050565b7f4e487b7100000000000000000000000000000000000000000000000000000000600052603160045260246000fd5b600081905092915050565b6000611fa282611bea565b611fac8185611f8c565b9350611fbc818560208601611c06565b80840191505092915050565b6000611fd48284611f97565b915081905092915050565b6000602082019050611ff46000830184611bdb565b92915050565b6133b3806120096000396000f3fe6080604052600436106101445760003560e01c80637eff007d116100b6578063bff1f9e11161006f578063bff1f9e114610588578063cae32bc3146105b3578063cdffacc6146105de578063d3d50d951461061b578063ebbf403614610646578063f2fde38b146106715761014b565b80637eff007d14610450578063893d20e81461047b5780638da5cb5b146104a657806398b8364f146104d1578063adfca15e1461050e578063bbd644a51461054b5761014b565b806354fd4d501161010857806354fd4d501461034e5780635f81a57c1461037957806361d027b3146103a4578063741bef1a146103cf5780637638ba32146103fa5780637a0ed627146104255761014b565b80631e4773de14610279578063417af0b5146102a257806347e8ba3e146102cd5780635026d63e146102f857806352ef6b2c146103235761014b565b3661014b57005b6000603f600080357fffffffff00000000000000000000000000000000000000000000000000000000167bffffffffffffffffffffffffffffffffffffffffffffffffffffffff19167bffffffffffffffffffffffffffffffffffffffffffffffffffffffff1916815260200190815260200160002060009054906101000a900473ffffffffffffffffffffffffffffffffffffffff169050600073ffffffffffffffffffffffffffffffffffffffff168173ffffffffffffffffffffffffffffffffffffffff1603610253576040517f08c379a000000000000000000000000000000000000000000000000000000000815260040161024a90612308565b60405180910390fd5b3660008037600080366000845af43d6000803e8060008114610274573d6000f35b3d6000fd5b34801561028557600080fd5b506102a0600480360381019061029b91906127a4565b61069a565b005b3480156102ae57600080fd5b506102b761073a565b6040516102c49190612848565b60405180910390f35b3480156102d957600080fd5b506102e2610740565b6040516102ef9190612848565b60405180910390f35b34801561030457600080fd5b5061030d610745565b60405161031a9190612848565b60405180910390f35b34801561032f57600080fd5b5061033861074b565b6040516103459190612921565b60405180910390f35b34801561035a57600080fd5b506103636107d9565b6040516103709190612848565b60405180910390f35b34801561038557600080fd5b5061038e6107df565b60405161039b9190612848565b60405180910390f35b3480156103b057600080fd5b506103b96107e5565b6040516103c69190612952565b60405180910390f35b3480156103db57600080fd5b506103e461080b565b6040516103f191906129cc565b60405180910390f35b34801561040657600080fd5b5061040f610831565b60405161041c9190612848565b60405180910390f35b34801561043157600080fd5b5061043a610836565b6040516104479190612ba4565b60405180910390f35b34801561045c57600080fd5b50610465610a73565b6040516104729190612848565b60405180910390f35b34801561048757600080fd5b50610490610a7a565b60405161049d9190612952565b60405180910390f35b3480156104b257600080fd5b506104bb610aa4565b6040516104c89190612952565b60405180910390f35b3480156104dd57600080fd5b506104f860048036038101906104f39190612bf2565b610aca565b6040516105059190612c2e565b60405180910390f35b34801561051a57600080fd5b5061053560048036038101906105309190612c49565b610af4565b6040516105429190612ce5565b60405180910390f35b34801561055757600080fd5b50610572600480360381019061056d9190612d07565b610c2f565b60405161057f9190612d4f565b60405180910390f35b34801561059457600080fd5b5061059d610cd9565b6040516105aa9190612848565b60405180910390f35b3480156105bf57600080fd5b506105c8610cdf565b6040516105d59190612848565b60405180910390f35b3480156105ea57600080fd5b5061060560048036038101906106009190612d07565b610ce4565b6040516106129190612952565b60405180910390f35b34801561062757600080fd5b50610630610d5f565b60405161063d9190612848565b60405180910390f35b34801561065257600080fd5b5061065b610d64565b6040516106689190612848565b60405180910390f35b34801561067d57600080fd5b5061069860048036038101906106939190612c49565b610d69565b005b600660009054906101000a900473ffffffffffffffffffffffffffffffffffffffff1673ffffffffffffffffffffffffffffffffffffffff163373ffffffffffffffffffffffffffffffffffffffff161461072a576040517f08c379a000000000000000000000000000000000000000000000000000000000815260040161072190612db6565b60405180910390fd5b610735838383610f2e565b505050565b600b5481565b604b81565b600a5481565b606060418054806020026020016040519081016040528092919081815260200182805480156107cf57602002820191906000526020600020905b8160009054906101000a900473ffffffffffffffffffffffffffffffffffffffff1673ffffffffffffffffffffffffffffffffffffffff1681526020019060010190808311610785575b5050505050905090565b600c5481565b60095481565b600760009054906101000a900473ffffffffffffffffffffffffffffffffffffffff1681565b600d60009054906101000a900473ffffffffffffffffffffffffffffffffffffffff1681565b601981565b6060600060418054905090508067ffffffffffffffff81111561085c5761085b612352565b5b60405190808252806020026020018201604052801561089557816020015b61088261223d565b81526020019060019003908161087a5790505b50915060005b81811015610a6e576000604182815481106108b9576108b8612dd6565b5b9060005260206000200160009054906101000a900473ffffffffffffffffffffffffffffffffffffffff1690506000604060008373ffffffffffffffffffffffffffffffffffffffff1673ffffffffffffffffffffffffffffffffffffffff168152602001908152602001600020905060006109378260010161115c565b905060008167ffffffffffffffff81111561095557610954612352565b5b6040519080825280602002602001820160405280156109835781602001602082028036833780820191505090505b50905060005b82811015610a13576109a7818560010161117190919063ffffffff16565b8282815181106109ba576109b9612dd6565b5b60200260200101907bffffffffffffffffffffffffffffffffffffffffffffffffffffffff191690817bffffffffffffffffffffffffffffffffffffffffffffffffffffffff1916815250508080600101915050610989565b5060405180604001604052808573ffffffffffffffffffffffffffffffffffffffff16815260200182815250878681518110610a5257610a51612dd6565b5b602002602001018190525050505050808060010191505061089b565b505090565b6276a70081565b6000600660009054906101000a900473ffffffffffffffffffffffffffffffffffffffff16905090565b600660009054906101000a900473ffffffffffffffffffffffffffffffffffffffff1681565b60008160038110610ada57600080fd5b60209182820401919006915054906101000a900460ff1681565b60606000604060008473ffffffffffffffffffffffffffffffffffffffff1673ffffffffffffffffffffffffffffffffffffffff16815260200190815260200160002090506000610b478260010161115c565b905060008167ffffffffffffffff811115610b6557610b64612352565b5b604051908082528060200260200182016040528015610b935781602001602082028036833780820191505090505b50905060005b82811015610c2357610bb7818560010161117190919063ffffffff16565b828281518110610bca57610bc9612dd6565b5b60200260200101907bffffffffffffffffffffffffffffffffffffffffffffffffffffffff191690817bffffffffffffffffffffffffffffffffffffffffffffffffffffffff1916815250508080600101915050610b99565b50809350505050919050565b60008073ffffffffffffffffffffffffffffffffffffffff16603f6000847bffffffffffffffffffffffffffffffffffffffffffffffffffffffff19167bffffffffffffffffffffffffffffffffffffffffffffffffffffffff1916815260200190815260200160002060009054906101000a900473ffffffffffffffffffffffffffffffffffffffff1673ffffffffffffffffffffffffffffffffffffffff1614159050919050565b60085481565b601981565b6000603f6000837bffffffffffffffffffffffffffffffffffffffffffffffffffffffff19167bffffffffffffffffffffffffffffffffffffffffffffffffffffffff1916815260200190815260200160002060009054906101000a900473ffffffffffffffffffffffffffffffffffffffff169050919050565b600381565b60c881565b600660009054906101000a900473ffffffffffffffffffffffffffffffffffffffff1673ffffffffffffffffffffffffffffffffffffffff163373ffffffffffffffffffffffffffffffffffffffff1614610df9576040517f08c379a0000000000000000000000000000000000000000000000000000000008152600401610df090612db6565b60405180910390fd5b600073ffffffffffffffffffffffffffffffffffffffff168173ffffffffffffffffffffffffffffffffffffffff1603610e68576040517f08c379a0000000000000000000000000000000000000000000000000000000008152600401610e5f90612e51565b60405180910390fd5b6000600660009054906101000a900473ffffffffffffffffffffffffffffffffffffffff16905081600660006101000a81548173ffffffffffffffffffffffffffffffffffffffff021916908373ffffffffffffffffffffffffffffffffffffffff1602179055508173ffffffffffffffffffffffffffffffffffffffff168173ffffffffffffffffffffffffffffffffffffffff167f8be0079c531659141344cd1fd0a4f28419497f9722a3daafe3b4186f6b6457e060405160405180910390a35050565b60005b835181101561101f576000848281518110610f4f57610f4e612dd6565b5b60200260200101519050600060ff16816040015160ff1603610f8257610f7d81600001518260200151611188565b611011565b600160ff16816040015160ff1603610fab57610fa681600001518260200151611562565b611010565b600260ff16816040015160ff1603610fd457610fcf81600001518260200151611a24565b61100f565b6040517f08c379a000000000000000000000000000000000000000000000000000000000815260040161100690612ebd565b60405180910390fd5b5b5b508080600101915050610f31565b507f66966c8a5eed8586a000df89fdb2a0609ed789cce7d1639a5f3b5483d802e0ad8383836040516110539392919061307d565b60405180910390a1600073ffffffffffffffffffffffffffffffffffffffff168273ffffffffffffffffffffffffffffffffffffffff1614611157576000815111156110a9576110a38282611ed4565b50611156565b6111546040516024016040516020818303038152906040527fe1c7392a000000000000000000000000000000000000000000000000000000007bffffffffffffffffffffffffffffffffffffffffffffffffffffffff19166020820180517bffffffffffffffffffffffffffffffffffffffffffffffffffffffff83818316178352505050508373ffffffffffffffffffffffffffffffffffffffff16611ed490919063ffffffff16565b505b5b505050565b600061116a82600001611f58565b9050919050565b60006111808360000183611f69565b905092915050565b600073ffffffffffffffffffffffffffffffffffffffff168273ffffffffffffffffffffffffffffffffffffffff16036111f7576040517f08c379a00000000000000000000000000000000000000000000000000000000081526004016111ee9061310e565b60405180910390fd5b600081511161123b576040517f08c379a00000000000000000000000000000000000000000000000000000000081526004016112329061317a565b60405180910390fd5b6000604060008473ffffffffffffffffffffffffffffffffffffffff1673ffffffffffffffffffffffffffffffffffffffff1681526020019081526020016000209050600073ffffffffffffffffffffffffffffffffffffffff168160000160009054906101000a900473ffffffffffffffffffffffffffffffffffffffff1673ffffffffffffffffffffffffffffffffffffffff160361137d576041839080600181540180825580915050600190039060005260206000200160009091909190916101000a81548173ffffffffffffffffffffffffffffffffffffffff021916908373ffffffffffffffffffffffffffffffffffffffff160217905550828160000160006101000a81548173ffffffffffffffffffffffffffffffffffffffff021916908373ffffffffffffffffffffffffffffffffffffffff1602179055505b60005b825181101561155c57600083828151811061139e5761139d612dd6565b5b60200260200101519050600073ffffffffffffffffffffffffffffffffffffffff16603f6000837bffffffffffffffffffffffffffffffffffffffffffffffffffffffff19167bffffffffffffffffffffffffffffffffffffffffffffffffffffffff1916815260200190815260200160002060009054906101000a900473ffffffffffffffffffffffffffffffffffffffff1673ffffffffffffffffffffffffffffffffffffffff1614611488576040517f08c379a000000000000000000000000000000000000000000000000000000000815260040161147f906131e6565b60405180910390fd5b6114bd817bffffffffffffffffffffffffffffffffffffffffffffffffffffffff191684600101611f9490919063ffffffff16565b5084603f6000837bffffffffffffffffffffffffffffffffffffffffffffffffffffffff19167bffffffffffffffffffffffffffffffffffffffffffffffffffffffff1916815260200190815260200160002060006101000a81548173ffffffffffffffffffffffffffffffffffffffff021916908373ffffffffffffffffffffffffffffffffffffffff160217905550508080600101915050611380565b50505050565b600073ffffffffffffffffffffffffffffffffffffffff168273ffffffffffffffffffffffffffffffffffffffff16036115d1576040517f08c379a00000000000000000000000000000000000000000000000000000000081526004016115c89061310e565b60405180910390fd5b6000815111611615576040517f08c379a000000000000000000000000000000000000000000000000000000000815260040161160c9061317a565b60405180910390fd5b60005b8151811015611a1f57600082828151811061163657611635612dd6565b5b602002602001015190506000603f6000837bffffffffffffffffffffffffffffffffffffffffffffffffffffffff19167bffffffffffffffffffffffffffffffffffffffffffffffffffffffff1916815260200190815260200160002060009054906101000a900473ffffffffffffffffffffffffffffffffffffffff169050600073ffffffffffffffffffffffffffffffffffffffff168173ffffffffffffffffffffffffffffffffffffffff1603611725576040517f08c379a000000000000000000000000000000000000000000000000000000000815260040161171c90612308565b60405180910390fd5b8473ffffffffffffffffffffffffffffffffffffffff168173ffffffffffffffffffffffffffffffffffffffff1603611793576040517f08c379a000000000000000000000000000000000000000000000000000000000815260040161178a90613278565b60405180910390fd5b611806827bffffffffffffffffffffffffffffffffffffffffffffffffffffffff1916604060008473ffffffffffffffffffffffffffffffffffffffff1673ffffffffffffffffffffffffffffffffffffffff168152602001908152602001600020600101611fab90919063ffffffff16565b506000604060008773ffffffffffffffffffffffffffffffffffffffff1673ffffffffffffffffffffffffffffffffffffffff1681526020019081526020016000209050600073ffffffffffffffffffffffffffffffffffffffff168160000160009054906101000a900473ffffffffffffffffffffffffffffffffffffffff1673ffffffffffffffffffffffffffffffffffffffff1603611949576041869080600181540180825580915050600190039060005260206000200160009091909190916101000a81548173ffffffffffffffffffffffffffffffffffffffff021916908373ffffffffffffffffffffffffffffffffffffffff160217905550858160000160006101000a81548173ffffffffffffffffffffffffffffffffffffffff021916908373ffffffffffffffffffffffffffffffffffffffff1602179055505b61197e837bffffffffffffffffffffffffffffffffffffffffffffffffffffffff191682600101611f9490919063ffffffff16565b5085603f6000857bffffffffffffffffffffffffffffffffffffffffffffffffffffffff19167bffffffffffffffffffffffffffffffffffffffffffffffffffffffff1916815260200190815260200160002060006101000a81548173ffffffffffffffffffffffffffffffffffffffff021916908373ffffffffffffffffffffffffffffffffffffffff1602179055505050508080600101915050611618565b505050565b6000815111611a68576040517f08c379a0000000000000000000000000000000000000000000000000000000008152600401611a5f9061317a565b60405180910390fd5b60005b8151811015611ecf576000828281518110611a8957611a88612dd6565b5b602002602001015190506000603f6000837bffffffffffffffffffffffffffffffffffffffffffffffffffffffff19167bffffffffffffffffffffffffffffffffffffffffffffffffffffffff1916815260200190815260200160002060009054906101000a900473ffffffffffffffffffffffffffffffffffffffff169050600073ffffffffffffffffffffffffffffffffffffffff168173ffffffffffffffffffffffffffffffffffffffff1603611b78576040517f08c379a0000000000000000000000000000000000000000000000000000000008152600401611b6f90612308565b60405180910390fd5b611beb827bffffffffffffffffffffffffffffffffffffffffffffffffffffffff1916604060008473ffffffffffffffffffffffffffffffffffffffff1673ffffffffffffffffffffffffffffffffffffffff168152602001908152602001600020600101611fab90919063ffffffff16565b50603f6000837bffffffffffffffffffffffffffffffffffffffffffffffffffffffff19167bffffffffffffffffffffffffffffffffffffffffffffffffffffffff1916815260200190815260200160002060006101000a81549073ffffffffffffffffffffffffffffffffffffffff02191690556000611cac604060008473ffffffffffffffffffffffffffffffffffffffff1673ffffffffffffffffffffffffffffffffffffffff16815260200190815260200160002060010161115c565b03611ec05760005b604180549050811015611e37578173ffffffffffffffffffffffffffffffffffffffff1660418281548110611cec57611ceb612dd6565b5b9060005260206000200160009054906101000a900473ffffffffffffffffffffffffffffffffffffffff1673ffffffffffffffffffffffffffffffffffffffff1603611e2a5760416001604180549050611d4691906132c7565b81548110611d5757611d56612dd6565b5b9060005260206000200160009054906101000a900473ffffffffffffffffffffffffffffffffffffffff1660418281548110611d9657611d95612dd6565b5b9060005260206000200160006101000a81548173ffffffffffffffffffffffffffffffffffffffff021916908373ffffffffffffffffffffffffffffffffffffffff1602179055506041805480611df057611def6132fb565b5b6001900381819060005260206000200160006101000a81549073ffffffffffffffffffffffffffffffffffffffff02191690559055611e37565b8080600101915050611cb4565b50604060008273ffffffffffffffffffffffffffffffffffffffff1673ffffffffffffffffffffffffffffffffffffffff168152602001908152602001600020600080820160006101000a81549073ffffffffffffffffffffffffffffffffffffffff021916905560018201600080820160008082016000611eb9919061226d565b5050505050505b50508080600101915050611a6b565b505050565b60606000808473ffffffffffffffffffffffffffffffffffffffff1684604051611efe9190613366565b600060405180830381855af49150503d8060008114611f39576040519150601f19603f3d011682016040523d82523d6000602084013e611f3e565b606091505b5091509150611f4e858383611fc2565b9250505092915050565b600081600001805490509050919050565b6000826000018281548110611f8157611f80612dd6565b5b9060005260206000200154905092915050565b6000611fa38360000183612051565b905092915050565b6000611fba83600001836120c1565b905092915050565b606082611fd757611fd2826121d5565b612049565b60008251148015611fff575060008473ffffffffffffffffffffffffffffffffffffffff163b145b1561204157836040517f9996b3150000000000000000000000000000000000000000000000000000000081526004016120389190612952565b60405180910390fd5b81905061204a565b5b9392505050565b600061205d838361221a565b6120b65782600001829080600181540180825580915050600190039060005260206000200160009091909190915055826000018054905083600101600084815260200190815260200160002081905550600190506120bb565b600090505b92915050565b600080836001016000848152602001908152602001600020549050600081146121c95760006001826120f391906132c7565b905060006001866000018054905061210b91906132c7565b905080821461217a57600086600001828154811061212c5761212b612dd6565b5b90600052602060002001549050808760000184815481106121505761214f612dd6565b5b90600052602060002001819055508387600101600083815260200190815260200160002081905550505b8560000180548061218e5761218d6132fb565b5b6001900381819060005260206000200160009055905585600101600086815260200190815260200160002060009055600193505050506121cf565b60009150505b92915050565b6000815111156121e85780518082602001fd5b6040517fd6bda27500000000000000000000000000000000000000000000000000000000815260040160405180910390fd5b600080836001016000848152602001908152602001600020541415905092915050565b6040518060400160405280600073ffffffffffffffffffffffffffffffffffffffff168152602001606081525090565b508054600082559060005260206000209081019061228b919061228e565b50565b5b808211156122a757600081600090555060010161228f565b5090565b600082825260208201905092915050565b7f4469616d6f6e643a2046756e6374696f6e20646f6573206e6f74206578697374600082015250565b60006122f26020836122ab565b91506122fd826122bc565b602082019050919050565b60006020820190508181036000830152612321816122e5565b9050919050565b6000604051905090565b600080fd5b600080fd5b600080fd5b6000601f19601f8301169050919050565b7f4e487b7100000000000000000000000000000000000000000000000000000000600052604160045260246000fd5b61238a82612341565b810181811067ffffffffffffffff821117156123a9576123a8612352565b5b80604052505050565b60006123bc612328565b90506123c88282612381565b919050565b600067ffffffffffffffff8211156123e8576123e7612352565b5b602082029050602081019050919050565b600080fd5b600080fd5b600080fd5b600073ffffffffffffffffffffffffffffffffffffffff82169050919050565b600061243382612408565b9050919050565b61244381612428565b811461244e57600080fd5b50565b6000813590506124608161243a565b92915050565b600067ffffffffffffffff82111561248157612480612352565b5b602082029050602081019050919050565b60007fffffffff0000000000000000000000000000000000000000000000000000000082169050919050565b6124c781612492565b81146124d257600080fd5b50565b6000813590506124e4816124be565b92915050565b60006124fd6124f884612466565b6123b2565b905080838252602082019050602084028301858111156125205761251f6123f9565b5b835b81811015612549578061253588826124d5565b845260208401935050602081019050612522565b5050509392505050565b600082601f8301126125685761256761233c565b5b81356125788482602086016124ea565b91505092915050565b600060ff82169050919050565b61259781612581565b81146125a257600080fd5b50565b6000813590506125b48161258e565b92915050565b6000606082840312156125d0576125cf6123fe565b5b6125da60606123b2565b905060006125ea84828501612451565b600083015250602082013567ffffffffffffffff81111561260e5761260d612403565b5b61261a84828501612553565b602083015250604061262e848285016125a5565b60408301525092915050565b600061264d612648846123cd565b6123b2565b905080838252602082019050602084028301858111156126705761266f6123f9565b5b835b818110156126b757803567ffffffffffffffff8111156126955761269461233c565b5b8086016126a289826125ba565b85526020850194505050602081019050612672565b5050509392505050565b600082601f8301126126d6576126d561233c565b5b81356126e684826020860161263a565b91505092915050565b600080fd5b600067ffffffffffffffff82111561270f5761270e612352565b5b61271882612341565b9050602081019050919050565b82818337600083830152505050565b6000612747612742846126f4565b6123b2565b905082815260208101848484011115612763576127626126ef565b5b61276e848285612725565b509392505050565b600082601f83011261278b5761278a61233c565b5b813561279b848260208601612734565b91505092915050565b6000806000606084860312156127bd576127bc612332565b5b600084013567ffffffffffffffff8111156127db576127da612337565b5b6127e7868287016126c1565b93505060206127f886828701612451565b925050604084013567ffffffffffffffff81111561281957612818612337565b5b61282586828701612776565b9150509250925092565b6000819050919050565b6128428161282f565b82525050565b600060208201905061285d6000830184612839565b92915050565b600081519050919050565b600082825260208201905092915050565b6000819050602082019050919050565b61289881612428565b82525050565b60006128aa838361288f565b60208301905092915050565b6000602082019050919050565b60006128ce82612863565b6128d8818561286e565b93506128e38361287f565b8060005b838110156129145781516128fb888261289e565b9750612906836128b6565b9250506001810190506128e7565b5085935050505092915050565b6000602082019050818103600083015261293b81846128c3565b905092915050565b61294c81612428565b82525050565b60006020820190506129676000830184612943565b92915050565b6000819050919050565b600061299261298d61298884612408565b61296d565b612408565b9050919050565b60006129a482612977565b9050919050565b60006129b682612999565b9050919050565b6129c6816129ab565b82525050565b60006020820190506129e160008301846129bd565b92915050565b600081519050919050565b600082825260208201905092915050565b6000819050602082019050919050565b600081519050919050565b600082825260208201905092915050565b6000819050602082019050919050565b612a4881612492565b82525050565b6000612a5a8383612a3f565b60208301905092915050565b6000602082019050919050565b6000612a7e82612a13565b612a888185612a1e565b9350612a9383612a2f565b8060005b83811015612ac4578151612aab8882612a4e565b9750612ab683612a66565b925050600181019050612a97565b5085935050505092915050565b6000604083016000830151612ae9600086018261288f565b5060208301518482036020860152612b018282612a73565b9150508091505092915050565b6000612b1a8383612ad1565b905092915050565b6000602082019050919050565b6000612b3a826129e7565b612b4481856129f2565b935083602082028501612b5685612a03565b8060005b85811015612b925784840389528151612b738582612b0e565b9450612b7e83612b22565b925060208a01995050600181019050612b5a565b50829750879550505050505092915050565b60006020820190508181036000830152612bbe8184612b2f565b905092915050565b612bcf8161282f565b8114612bda57600080fd5b50565b600081359050612bec81612bc6565b92915050565b600060208284031215612c0857612c07612332565b5b6000612c1684828501612bdd565b91505092915050565b612c2881612581565b82525050565b6000602082019050612c436000830184612c1f565b92915050565b600060208284031215612c5f57612c5e612332565b5b6000612c6d84828501612451565b91505092915050565b600082825260208201905092915050565b6000612c9282612a13565b612c9c8185612c76565b9350612ca783612a2f565b8060005b83811015612cd8578151612cbf8882612a4e565b9750612cca83612a66565b925050600181019050612cab565b5085935050505092915050565b60006020820190508181036000830152612cff8184612c87565b905092915050565b600060208284031215612d1d57612d1c612332565b5b6000612d2b848285016124d5565b91505092915050565b60008115159050919050565b612d4981612d34565b82525050565b6000602082019050612d646000830184612d40565b92915050565b7f4469616d6f6e643a204e6f7420617574686f72697a6564000000000000000000600082015250565b6000612da06017836122ab565b9150612dab82612d6a565b602082019050919050565b60006020820190508181036000830152612dcf81612d93565b9050919050565b7f4e487b7100000000000000000000000000000000000000000000000000000000600052603260045260246000fd5b7f4e6577206f776e65722063616e6e6f74206265207a65726f2061646472657373600082015250565b6000612e3b6020836122ab565b9150612e4682612e05565b602082019050919050565b60006020820190508181036000830152612e6a81612e2e565b9050919050565b7f4469616d6f6e643a20496e76616c696420616374696f6e000000000000000000600082015250565b6000612ea76017836122ab565b9150612eb282612e71565b602082019050919050565b60006020820190508181036000830152612ed681612e9a565b9050919050565b600081519050919050565b600082825260208201905092915050565b6000819050602082019050919050565b612f1281612581565b82525050565b6000606083016000830151612f30600086018261288f565b5060208301518482036020860152612f488282612a73565b9150506040830151612f5d6040860182612f09565b508091505092915050565b6000612f748383612f18565b905092915050565b6000602082019050919050565b6000612f9482612edd565b612f9e8185612ee8565b935083602082028501612fb085612ef9565b8060005b85811015612fec5784840389528151612fcd8582612f68565b9450612fd883612f7c565b925060208a01995050600181019050612fb4565b50829750879550505050505092915050565b600081519050919050565b600082825260208201905092915050565b60005b8381101561303857808201518184015260208101905061301d565b60008484015250505050565b600061304f82612ffe565b6130598185613009565b935061306981856020860161301a565b61307281612341565b840191505092915050565b600060608201905081810360008301526130978186612f89565b90506130a66020830185612943565b81810360408301526130b88184613044565b9050949350505050565b7f4469616d6f6e643a20496e76616c696420666163657420616464726573730000600082015250565b60006130f8601e836122ab565b9150613103826130c2565b602082019050919050565b60006020820190508181036000830152613127816130eb565b9050919050565b7f4469616d6f6e643a204e6f2073656c6563746f72732070726f76696465640000600082015250565b6000613164601e836122ab565b915061316f8261312e565b602082019050919050565b6000602082019050818103600083015261319381613157565b9050919050565b7f4469616d6f6e643a2046756e6374696f6e20616c726561647920657869737473600082015250565b60006131d06020836122ab565b91506131db8261319a565b602082019050919050565b600060208201905081810360008301526131ff816131c3565b9050919050565b7f4469616d6f6e643a2043616e6e6f74207265706c61636520776974682073616d60008201527f6520666163657400000000000000000000000000000000000000000000000000602082015250565b60006132626027836122ab565b915061326d82613206565b604082019050919050565b6000602082019050818103600083015261329181613255565b9050919050565b7f4e487b7100000000000000000000000000000000000000000000000000000000600052601160045260246000fd5b60006132d28261282f565b91506132dd8361282f565b92508282039050818111156132f5576132f4613298565b5b92915050565b7f4e487b7100000000000000000000000000000000000000000000000000000000600052603160045260246000fd5b600081905092915050565b600061334082612ffe565b61334a818561332a565b935061335a81856020860161301a565b80840191505092915050565b60006133728284613335565b91508190509291505056fea264697066735822122029d81c6d678cba3402b04effa972d0713f1c79e16e18000a42165e64bd5bfdb064736f6c634300081c0033",
  "linkReferences": {},
  "deployedLinkReferences": {}
}